:100000002EC0FECFFDCFFCCFFBCFFACFF9CFF8CF7C
:10001000F7CFF6CFF5CFF4CFF3CFF2CFF1CFF0CFCC
:10002000EFCF506C6561736520656E7465722061F9
:100030002076616C7565206265747765656E203128
:1000400020616E642034303936001027E8036400E4
:100050000A00010000100001100001000000F894E7
:10006000EE27ECBBE5BFF8E1F1BDF0E1F1BD8DE0BD
:10007000A2E0BB27ED938A95E9F780E092E0A0E645
:10008000ED930197E9F7ECE5F0E0C8953196102C77
:10009000C89531966E2F7F2FF02DE12D3097A1F06E
:1000A000C8953196A02DC8953196B02DC89531963A
:1000B000802DC8953196902DC89531960D92019757
:1000C000D9F7E62FF72FE1CFEFE5EDBFE2E0EEBF86
:1000D000CFEDD0E000C0EE27EBBBEABBE8BBE7BB4F
:1000E000E5BBE4BBE2BBE1BBE3BFE2BFEFBDEEBDFE
:1000F000EDBDECBDEBBDEABDE9BDE8BDE2BDE5BDD2
:10010000E4BDE3BDEBBFE5BFE9BFE8E1EAB9E7E184
:10011000E9B9E0E8E8B9E2E2F0E0FA93EA9380E0D6
:1001200049D12296E4E6F0E0FA93EA9384D1F3CF42
:10013000FFCF5F9BFECFECB108955D9BFECFE881C2
:10014000ECB921960895E091E000F091E10030973C
:1001500069F0A091E000B091E1001196A093E00059
:10016000B093E1001197E881EC9303C0E881EA9332
:10017000E4DF21960895289783D100E0E889F98982
:100180003196E88BF98B3197C895E02D3E2FE03002
:1001900009F40DC1E02FE03031F4353211F401E003
:1001A00001C023D103C1E130A9F4353219F41DD1C6
:1001B00000E0FCC002E050E010E03D3211F411E03C
:1001C000F5C03B3211F45BE2F1C0303211F450E281
:1001D000EDC002C0E23039F440E003E0303311F406
:1001E0001068E4C003C0E33009F0E0C0303310F021
:1001F0003A3308F009C0242F440F440F420F440F34
:10020000E32FE0534E0FD2C0E32FE33621F4EFD0BB
:10021000EC91F4D0CAC0E33749F4E9D024D1EC879B
:10022000FD87FA93EA93F0D00E2F0BC0E03769F404
:10023000DED019D1EE83FF83FA93EA93EFD00E2F2D
:10024000186012601F7720E030C0E43611F0E93604
:1002500011F4146002C0E53731F4EAE4F0E0EE8313
:10026000FF8305E00CC0E83511F4186003C0E837DF
:1002700009F09BC0E4E5F0E0EE83FF8304E012FFA9
:1002800012C0B5D0BDD0AA85BB85109734F4EA85DD
:10029000FB85E1D0EA87FB875DE2503011F00F5F0C
:1002A00001C01B7F02C0A3D0ABD010FD10C004174B
:1002B00070F417FF08C012FF04C01B7F352F0150D8
:1002C00001C030E301C030E290D04150F0CF202F88
:1002D00011FF1AC02030B9F013FF09C0EE81FF8171
:1002E0003196EE83FF833197C895E02D05C0AC852C
:1002F000BD85ED91AC87BD87EA9325DF403009F0DD
:1003000041502150E7CF49C030E3EE81FF81329662
:10031000EE83FF833297ADD0E887F987AA85BB8546
:10032000AE17BF0720F03F5FAE1BBF0BC9F7AA8710
:10033000BB87E9E3E31728F413FF02C0395F01C06C
:10034000395D14FD1DC0E0E3E31730F0A885B985E1
:10035000A130E0E0BE0711F410610AC0421710F0AE
:1003600010FF01C011C030E217FF0AC030E3106176
:1003700012FF06C01B7F5A93E6DE403009F0415061
:1003800034D0403009F041502150A885B985E1E0D2
:10039000F0E0EA17FB0708F4B7CF10FF06C04030C3
:1003A00021F04150E0E22AD0FACF00E0E7CE6FD052
:1003B00062960895F82E2297AC2FBD2F129747D042
:1003C000A883B983EE27E093E000E093E100AC2F2F
:1003D000BD2F12963CD043D0FA93EA93EA81FB8179
:1003E000FA93EA93C8DE229608953A93ACCEAE858E
:1003F000BF851497AE87BF8714960895EA93A3CE5E
:100400002ED0EA87FB870895A991B991EE27FF279F
:100410006D91662311F03196FBCF0895AA27BB2773
:10042000E991F991C895002019F011963196FACF0B
:10043000EA2FFB2F0895E991F991309639F08CE974
:1004400093E00197F1F7A8953197C9F70895002433
:10045000AF0DB01D0895E095F09531960895ED919A
:10046000FC9111970895ED91FD916D917C911397F9
:100470000895C8953196102CC895F02DE12D08955A
:100480005A934A933A932A931A930A9308955D8153
:0C0490004C813B812A811981088108956C
:00000001FF
