:1000000035C0FECFFDCFFCCFFBCFFACFF9CFF8CF75
:10001000F7CFF6CFF5CFF4CFF3CFF2CFF1CFF0CFCC
:10002000EFCF7468652076616C7565206973202553
:10003000642025642025642025642025642025640F
:100040002025642025642025642025642025642043
:1000500025642025640A00001027E80364000A00D4
:10006000010000100001100001000000F894EE27CC
:10007000ECBBE5BFF8E1F1BDF0E1F1BD8DE0A2E040
:10008000BB27ED938A95E9F780E092E0A0E6ED9337
:100090000197E9F7EAE6F0E0C8953196102CC8958B
:1000A00031966E2F7F2FF02DE12D3097A1F0C8955E
:1000B0003196A02DC8953196B02DC8953196802DDA
:1000C000C8953196902DC89531960D920197D9F724
:1000D000E62FF72FE1CFEFE5EDBFE2E0EEBFCFED8A
:1000E000D0E000C0EE27EBBBEFEFEABBEE27E8BBAA
:1000F000EFEFE7BBEE27E5BBEFEFE4BBEE27E2BB9C
:10010000EFEFE1BBAE9AC09A929A949A969AE8E180
:10011000EAB9E3E3E9B95F9BB3C0E8EEF0E0FA9334
:10012000EA93E2E0F0E00FD2E5E0F0E00CD227D273
:10013000E093F000F093F1006093F2007093F3000D
:10014000E0930200F09303006093040070930500B5
:10015000E2E2F0E0FA93EA93E091F000F091F1002E
:100160006091F2007091F300BED2EE2720FCE1E036
:10017000F2D1EE2721FCE1E0EED1EE2722FCE1E016
:10018000EAD1EE2723FCE1E0E6D1EE2724FCE1E012
:10019000E2D1EE2725FCE1E0DED1EE2726FCE1E00E
:1001A000DAD1EE2727FCE1E0D6D1EE2730FCE1E002
:1001B000D2D1EE2731FCE1E0CED1EE2732FCE1E0F6
:1001C000CAD1EE2733FCE1E0C6D184E3A1D1E696A3
:1001D00020FAE8B3E1F9E8BB21FAE8B3E3F9E8BBB8
:1001E00022FAE8B3E5F9E8BB23FAE8B3E7F9E8BB9C
:1001F00024FAE5B3E1F9E5BB25FAE5B3E3F9E5BB9C
:1002000026FAE5B3E5F9E5BB27FAE5B3E7F9E5BB7F
:1002100030FAE8B3E2F9E8BB31FAE2B3E3F9E2BB62
:1002200032FAE2B3E5F9E2BB33FAE2B3E7F9E2BB53
:10023000949883E08A95F1F7969883E08A95F1F790
:10024000969A949A929883E08A95F1F7969883E02B
:100250008A95F1F7969A929AAE9883E08A95F1F78B
:10026000969883E08A95F1F7969AAE9AC09883E0C3
:100270008A95F1F7969883E08A95F1F7969AC09A55
:10028000E8EEF3E0FA93EA9309D245CFFFCF5F9B04
:10029000FECFECB108955D9BFECFE881ECB92196CD
:1002A0000895E091F400F091F500309769F0A09185
:1002B000F400B091F5001196A093F400B093F5000E
:1002C0001197E881EC9303C0E881EA93E4DF21967B
:1002D000089528970DD200E0E889F9893196E88BD6
:1002E000F98B3197C895E02D3E2FE03009F40DC110
:1002F000E02FE03031F4353211F401E001C030D1AB
:1003000003C1E130A9F4353219F42AD100E0FCC070
:1003100002E050E010E03D3211F411E0F5C03B3254
:1003200011F45BE2F1C0303211F450E2EDC002C0D2
:10033000E23039F440E003E0303311F41068E4C0F7
:1003400003C0E33009F0E0C0303310F03A3308F076
:1003500009C0242F440F440F420F440FE32FE053F2
:100360004E0FD2C0E32FE33621F4FCD0EC9101D143
:10037000CAC0E33749F4F6D0A9D1EC87FD87FA93D8
:10038000EA9375D10E2F0BC0E03769F4EBD09ED104
:10039000EE83FF83FA93EA9374D10E2F18601260F4
:1003A0001F7720E030C0E43611F0E93611F4146014
:1003B00002C0E53731F4E8E5F0E0EE83FF8305E0C5
:1003C0000CC0E83511F4186003C0E83709F09BC091
:1003D000E2E6F0E0EE83FF8304E012FF12C0C2D039
:1003E000CAD0AA85BB85109734F4EA85FB8566D10F
:1003F000EA87FB875DE2503011F00F5F01C01B7F81
:1004000002C0B0D0B8D010FD10C0041770F417FFB0
:1004100008C012FF04C01B7F352F015001C030E31C
:1004200001C030E29DD04150F0CF202F11FF1AC003
:100430002030B9F013FF09C0EE81FF813196EE83C1
:10044000FF833197C895E02D05C0AC85BD85ED9142
:10045000AC87BD87EA9325DF403009F04150215039
:10046000E7CF49C030E3EE81FF813296EE83FF8310
:10047000329732D1E887F987AA85BB85AE17BF07C7
:1004800020F03F5FAE1BBF0BC9F7AA87BB87E9E32C
:10049000E31728F413FF02C0395F01C0395D14FD72
:1004A0001DC0E0E3E31730F0A885B985A130E0E096
:1004B000BE0711F410610AC0421710F010FF01C00E
:1004C00011C030E217FF0AC030E3106112FF06C00E
:1004D0001B7F5A93E6DE403009F0415041D0403056
:1004E00009F041502150A885B985E1E0F0E0EA1714
:1004F000FB0708F4B7CF10FF06C0403021F0415091
:10050000E0E237D0FACF00E0E7CEF9D06296089566
:10051000F82E2297AC2FBD2F1297CCD0A883B98389
:10052000EE27E093F400E093F500AC2FBD2F129678
:10053000C1D0C8D0FA93EA93EA81FB81FA93EA9397
:10054000C8DE22960895FA93EA935BD0E0EEF0E0DD
:10055000FA93EA930895FF2766277727C4D0089572
:100560003A939FCEAE85BF851497AE87BF8714960A
:100570000895EA9396CEA6D0EA87FB870895B981BD
:10058000A881EC91EA9369D0EE2311F01196F9CF8E
:10059000E894EC91ED3211F4689402C0EB3209F466
:1005A00011960024112488279927EC91EA934DD0C5
:1005B000EE2399F0E02DF12D682F792F1DD01CD05E
:1005C0000E0E1F1E861F971F17D0ED91FF27E053B9
:1005D0000E0E1F1E8F1F9F1FE8CFE02DF12D682FDD
:1005E000792F46F4E095F0956095709588273196BF
:1005F000681F781F22960895000C111C881F991FF0
:100600000895BB81AA81998188810096E1F08F933A
:100610009F93AF93BF933BDEBF91AF919F918F911B
:10062000E83041F4E8818E17E9819E0784F701964E
:100630001197EDCFEA3019F0ED93019741F7EE27CE
:10064000EC93EA81FB8124960895E1E0F991F0337F
:1006500010F0FA3308F0EE270895E1E0F991F03256
:1006600029F0F93019F0FD3009F0EE270895A9912D
:10067000B991EE27FF276D91662311F03196FBCFDC
:100680000895AA27BB27E991F991C895002019F090
:1006900011963196FACFEA2FFB2F0895E991F9913F
:1006A000309639F080ED97E00197F1F7A8953197F2
:1006B000C9F708950024AF0DB01D0895E095F09599
:1006C00031960895ED91FC9111970895ED91FD916A
:1006D0006D917C9113970895C8953196102CC8950B
:1006E000F02DE12D08957A936A93FA93EA93089591
:1006F0005A934A933A932A931A930A9308955D81E1
:0C0700004C813B812A81198108810895F9
:00000001FF
