:1000000047C0FECFFDCFFCCFFBCFFACFF9CFF8CF63
:10001000F7CFF6CFF5CFF4CFF3CFF2CFF1CFF0CFCC
:10002000EFCF506C6561736520656E7465722061F9
:100030002076616C7565206265747765656E203128
:1000400020616E6420343039360074686520766132
:100050006C75652069732025642025642025642043
:10006000256420256420256420256420256420251E
:10007000642025642025642025640A001027E803F5
:1000800064000A00010000100001100001000000DF
:10009000F894EE27ECBBE5BFF8E1F1BDF0E1F1BD6E
:1000A0008DE0A2E0BB27ED938A95E9F780E092E02E
:1000B000A0E6ED930197E9F7EEE8F0E0C8953196F8
:1000C000102CC89531966E2F7F2FF02DE12D309793
:1000D000A1F0C8953196A02DC8953196B02DC89540
:1000E0003196802DC8953196902DC89531960D92F8
:1000F0000197D9F7E62FF72FE1CFEFE5EDBFE2E06B
:10010000EEBFCFEDD0E000C0EE27EBBBEFEFEABBD8
:10011000EE27E8BBEFEFE7BBEE27E5BBEFEFE4BB75
:10012000EE27E2BBEFEFE1BBEE27EBBFE5BFE9BF98
:10013000E8E1EAB9E7E1E9B9E2E2F0E0FA93EA934B
:1001400080E0A9D12296C2D1E1E0F0E0C4D1E5E09F
:10015000F0E0C1D1DBD13E2E4F2E3092E90040922B
:10016000EA00EAE4F0E0FA93EA93E091E900F09122
:10017000EA00B5D1E091EB00F091EC00F695E7953F
:10018000AED1E091EB00F091EC0054D2A8D1E09117
:10019000EB00F091EC004CD2A2D1E091EB00F09199
:1001A000EC0044D29CD1A091EB00B091EC00E5E0D2
:1001B0009CD1A091EB00B091EC00E6E096D1A0912B
:1001C000EB00B091EC00E7E090D1A091EB00B09192
:1001D000EC00EA2FFB2FEF2FFF2781D1A091EB003E
:1001E000B091EC00E9E081D1A091EB00B091EC007E
:1001F000EAE07BD1A091EB00B091EC00EBE075D18F
:1002000080E349D1E2969098AE9892989498969807
:1002100093CFFFCF5F9BFECFECB108955D9BFECFE8
:10022000E881ECB921960895E091EB00F091EC00A3
:10023000309769F0A091EB00B091EC001196A0937B
:10024000EB00B093EC001197E881EC9303C0E881D8
:10025000EA93E4DF21960895289707D200E0E88921
:10026000F9893196E88BF98B3197C895E02D3E2FAF
:10027000E03009F40DC1E02FE03031F4353211F4F3
:1002800001E001C034D103C1E130A9F4353219F4E1
:100290002ED100E0FCC002E050E010E03D3211F44D
:1002A00011E0F5C03B3211F45BE2F1C0303211F4E1
:1002B00050E2EDC002C0E23039F440E003E03033F8
:1002C00011F41068E4C003C0E33009F0E0C030333B
:1002D00010F03A3308F009C0242F440F440F420FA6
:1002E000440FE32FE0534E0FD2C0E32FE33621F447
:1002F00000D1EC9105D1CAC0E33749F4FAD0A3D1BB
:10030000EC87FD87FA93EA9368D10E2F0BC0E03794
:1003100069F4EFD098D1EE83FF83FA93EA9367D123
:100320000E2F186012601F7720E030C0E43611F005
:10033000E93611F4146002C0E53731F4ECE7F0E07F
:10034000EE83FF8305E00CC0E83511F4186003C0AC
:10035000E83709F09BC0E6E8F0E0EE83FF8304E0B5
:1003600012FF12C0C6D0CED0AA85BB85109734F438
:10037000EA85FB854DD1EA87FB875DE2503011F0BD
:100380000F5F01C01B7F02C0B4D0BCD010FD10C0F5
:10039000041770F417FF08C012FF04C01B7F352F2D
:1003A000015001C030E301C030E2A1D04150F0CF94
:1003B000202F11FF1AC02030B9F013FF09C0EE81C1
:1003C000FF813196EE83FF833197C895E02D05C0FC
:1003D000AC85BD85ED91AC87BD87EA9325DF4030C4
:1003E00009F041502150E7CF49C030E3EE81FF8151
:1003F0003296EE83FF8332972CD1E887F987AA855E
:10040000BB85AE17BF0720F03F5FAE1BBF0BC9F720
:10041000AA87BB87E9E3E31728F413FF02C0395F1B
:1004200001C0395D14FD1DC0E0E3E31730F0A8857D
:10043000B985A130E0E0BE0711F410610AC042178F
:1004400010F010FF01C011C030E217FF0AC030E306
:10045000106112FF06C01B7F5A93E6DE403009F0A0
:10046000415045D0403009F041502150A885B98510
:10047000E1E0F0E0EA17FB0708F4B7CF10FF06C091
:10048000403021F04150E0E23BD0FACF00E0E7CE2F
:10049000F3D062960895F82E2297AC2FBD2F1297B5
:1004A000B3D0A883B983EE27E093EB00E093EC0090
:1004B000AC2FBD2F1296A8D0C2D0FA93EA93EA814E
:1004C000FB81FA93EA93C8DE22960895E0EEF0E00D
:1004D000FA93EA930895FA93EA9349D0F7CFE1703B
:1004E000F07066277727BCD0089596D0F8CF3A935E
:1004F0009BCEAE85BF851497AE87BF8714960895AF
:10050000EA9392CE9CD0EA87FB870895B981A881AF
:10051000EC91EA9358D0EE2311F01196F9CFE894BC
:10052000EC91ED3211F4689402C0EB3209F41196AB
:1005300066277727EC91EA933ED0EE2381F0E62FF1
:10054000F72F660F771F660F771F6E0F7F1F660FDF
:10055000771FED91FF27E0536E0F7F1FEBCFE62F44
:10056000F72F1EF4E095F095319622960895BB8101
:10057000AA81998188810096E1F08F939F93AF9330
:10058000BF9348DEBF91AF919F918F91E83041F4C6
:10059000E8818E17E9819E0784F701961197EDCFC8
:1005A000EA3019F0ED93019741F7EE27EC93EA81D9
:1005B000FB8124960895E1E0F991F03310F0FA33CD
:1005C00008F0EE270895E1E0F991F03229F0F930D2
:1005D00019F0FD3009F0EE270895A991B991EE27A1
:1005E000FF276D91662311F03196FBCF0895AA275E
:1005F000BB27E991F991C895002019F01196319621
:10060000FACFEA2FFB2F08950024AF0DB01D0895F7
:10061000E095F09531960895EE230E2EEA2FFB2FEC
:1006200021F0F695E7950A94E1F70895F695E79598
:10063000F695E795F695E795F695E7950895ED918A
:10064000FC9111970895ED91FD916D917C91139717
:100650000895C8953196102CC895F02DE12D089578
:100660007A936A93FA93EA9308955A934A933A9342
:100670002A931A930A9308955D814C813B812A81C4
:06068000198108810895B4
:00000001FF
